{
	"taxiride.sol": {
		"TaxiRide": {
			"abi": [
				{
					"anonymous": false,
					"inputs": [
						{
							"indexed": false,
							"internalType": "address",
							"name": "driver",
							"type": "address"
						},
						{
							"indexed": false,
							"internalType": "uint256",
							"name": "fare",
							"type": "uint256"
						}
					],
					"name": "PaymentRecieved",
					"type": "event"
				},
				{
					"anonymous": false,
					"inputs": [
						{
							"indexed": false,
							"internalType": "uint256",
							"name": "rideId",
							"type": "uint256"
						},
						{
							"indexed": false,
							"internalType": "address",
							"name": "driver",
							"type": "address"
						}
					],
					"name": "RideAccepted",
					"type": "event"
				},
				{
					"anonymous": false,
					"inputs": [
						{
							"indexed": false,
							"internalType": "uint256",
							"name": "rideId",
							"type": "uint256"
						},
						{
							"indexed": false,
							"internalType": "address",
							"name": "driver",
							"type": "address"
						},
						{
							"indexed": false,
							"internalType": "uint256",
							"name": "fare",
							"type": "uint256"
						}
					],
					"name": "RideCompletedByRider",
					"type": "event"
				},
				{
					"anonymous": false,
					"inputs": [
						{
							"indexed": false,
							"internalType": "uint256",
							"name": "rideId",
							"type": "uint256"
						},
						{
							"indexed": false,
							"internalType": "address",
							"name": "rider",
							"type": "address"
						},
						{
							"indexed": false,
							"internalType": "uint256",
							"name": "fare",
							"type": "uint256"
						}
					],
					"name": "RideRequested",
					"type": "event"
				},
				{
					"inputs": [],
					"name": "owner",
					"outputs": [
						{
							"internalType": "address",
							"name": "",
							"type": "address"
						}
					],
					"stateMutability": "view",
					"type": "function"
				},
				{
					"inputs": [],
					"name": "platformBalance",
					"outputs": [
						{
							"internalType": "uint256",
							"name": "",
							"type": "uint256"
						}
					],
					"stateMutability": "view",
					"type": "function"
				},
				{
					"inputs": [],
					"name": "rideCount",
					"outputs": [
						{
							"internalType": "uint256",
							"name": "",
							"type": "uint256"
						}
					],
					"stateMutability": "view",
					"type": "function"
				},
				{
					"inputs": [
						{
							"internalType": "uint256",
							"name": "",
							"type": "uint256"
						}
					],
					"name": "ridesByID",
					"outputs": [
						{
							"internalType": "address payable",
							"name": "rider",
							"type": "address"
						},
						{
							"internalType": "address payable",
							"name": "driver",
							"type": "address"
						},
						{
							"internalType": "uint256",
							"name": "fare",
							"type": "uint256"
						},
						{
							"internalType": "bool",
							"name": "isAccepted",
							"type": "bool"
						},
						{
							"internalType": "bool",
							"name": "isCompleted",
							"type": "bool"
						}
					],
					"stateMutability": "view",
					"type": "function"
				}
			],
			"devdoc": {
				"kind": "dev",
				"methods": {},
				"version": 1
			},
			"evm": {
				"assembly": "    /* \"taxiride.sol\":91:1010  contract TaxiRide{... */\n  mstore(0x40, 0x80)\n  callvalue\n  dup1\n  iszero\n  tag_1\n  jumpi\n  0x00\n  dup1\n  revert\ntag_1:\n  pop\n  dataSize(sub_0)\n  dup1\n  dataOffset(sub_0)\n  0x00\n  codecopy\n  0x00\n  return\nstop\n\nsub_0: assembly {\n        /* \"taxiride.sol\":91:1010  contract TaxiRide{... */\n      mstore(0x40, 0x80)\n      callvalue\n      dup1\n      iszero\n      tag_1\n      jumpi\n      0x00\n      dup1\n      revert\n    tag_1:\n      pop\n      jumpi(tag_2, lt(calldatasize, 0x04))\n      shr(0xe0, calldataload(0x00))\n      dup1\n      0x4dbbaa2e\n      eq\n      tag_3\n      jumpi\n      dup1\n      0x62a5dbbc\n      eq\n      tag_4\n      jumpi\n      dup1\n      0x8da5cb5b\n      eq\n      tag_5\n      jumpi\n      dup1\n      0xb47c1883\n      eq\n      tag_6\n      jumpi\n    tag_2:\n      0x00\n      dup1\n      revert\n        /* \"taxiride.sol\":543:582  mapping (uint => Ride) public ridesByID */\n    tag_3:\n      tag_7\n      0x04\n      dup1\n      calldatasize\n      sub\n      dup2\n      add\n      swap1\n      tag_8\n      swap2\n      swap1\n      tag_9\n      jump\t// in\n    tag_8:\n      tag_10\n      jump\t// in\n    tag_7:\n      mload(0x40)\n      tag_11\n      swap6\n      swap5\n      swap4\n      swap3\n      swap2\n      swap1\n      tag_12\n      jump\t// in\n    tag_11:\n      mload(0x40)\n      dup1\n      swap2\n      sub\n      swap1\n      return\n        /* \"taxiride.sol\":163:190  uint public platformBalance */\n    tag_4:\n      tag_13\n      tag_14\n      jump\t// in\n    tag_13:\n      mload(0x40)\n      tag_15\n      swap2\n      swap1\n      tag_16\n      jump\t// in\n    tag_15:\n      mload(0x40)\n      dup1\n      swap2\n      sub\n      swap1\n      return\n        /* \"taxiride.sol\":115:135  address public owner */\n    tag_5:\n      tag_17\n      tag_18\n      jump\t// in\n    tag_17:\n      mload(0x40)\n      tag_19\n      swap2\n      swap1\n      tag_20\n      jump\t// in\n    tag_19:\n      mload(0x40)\n      dup1\n      swap2\n      sub\n      swap1\n      return\n        /* \"taxiride.sol\":585:606  uint public rideCount */\n    tag_6:\n      tag_21\n      tag_22\n      jump\t// in\n    tag_21:\n      mload(0x40)\n      tag_23\n      swap2\n      swap1\n      tag_16\n      jump\t// in\n    tag_23:\n      mload(0x40)\n      dup1\n      swap2\n      sub\n      swap1\n      return\n        /* \"taxiride.sol\":543:582  mapping (uint => Ride) public ridesByID */\n    tag_10:\n      mstore(0x20, 0x02)\n      dup1\n      0x00\n      mstore\n      keccak256(0x00, 0x40)\n      0x00\n      swap2\n      pop\n      swap1\n      pop\n      dup1\n      0x00\n      add\n      0x00\n      swap1\n      sload\n      swap1\n      0x0100\n      exp\n      swap1\n      div\n      0xffffffffffffffffffffffffffffffffffffffff\n      and\n      swap1\n      dup1\n      0x01\n      add\n      0x00\n      swap1\n      sload\n      swap1\n      0x0100\n      exp\n      swap1\n      div\n      0xffffffffffffffffffffffffffffffffffffffff\n      and\n      swap1\n      dup1\n      0x02\n      add\n      sload\n      swap1\n      dup1\n      0x03\n      add\n      0x00\n      swap1\n      sload\n      swap1\n      0x0100\n      exp\n      swap1\n      div\n      0xff\n      and\n      swap1\n      dup1\n      0x03\n      add\n      0x01\n      swap1\n      sload\n      swap1\n      0x0100\n      exp\n      swap1\n      div\n      0xff\n      and\n      swap1\n      pop\n      dup6\n      jump\t// out\n        /* \"taxiride.sol\":163:190  uint public platformBalance */\n    tag_14:\n      sload(0x01)\n      dup2\n      jump\t// out\n        /* \"taxiride.sol\":115:135  address public owner */\n    tag_18:\n      0x00\n      dup1\n      sload\n      swap1\n      0x0100\n      exp\n      swap1\n      div\n      0xffffffffffffffffffffffffffffffffffffffff\n      and\n      dup2\n      jump\t// out\n        /* \"taxiride.sol\":585:606  uint public rideCount */\n    tag_22:\n      sload(0x03)\n      dup2\n      jump\t// out\n        /* \"#utility.yul\":88:205   */\n    tag_25:\n        /* \"#utility.yul\":197:198   */\n      0x00\n        /* \"#utility.yul\":194:195   */\n      dup1\n        /* \"#utility.yul\":187:199   */\n      revert\n        /* \"#utility.yul\":334:411   */\n    tag_27:\n        /* \"#utility.yul\":371:378   */\n      0x00\n        /* \"#utility.yul\":400:405   */\n      dup2\n        /* \"#utility.yul\":389:405   */\n      swap1\n      pop\n        /* \"#utility.yul\":334:411   */\n      swap2\n      swap1\n      pop\n      jump\t// out\n        /* \"#utility.yul\":417:539   */\n    tag_28:\n        /* \"#utility.yul\":490:514   */\n      tag_44\n        /* \"#utility.yul\":508:513   */\n      dup2\n        /* \"#utility.yul\":490:514   */\n      tag_27\n      jump\t// in\n    tag_44:\n        /* \"#utility.yul\":483:488   */\n      dup2\n        /* \"#utility.yul\":480:515   */\n      eq\n        /* \"#utility.yul\":470:533   */\n      tag_45\n      jumpi\n        /* \"#utility.yul\":529:530   */\n      0x00\n        /* \"#utility.yul\":526:527   */\n      dup1\n        /* \"#utility.yul\":519:531   */\n      revert\n        /* \"#utility.yul\":470:533   */\n    tag_45:\n        /* \"#utility.yul\":417:539   */\n      pop\n      jump\t// out\n        /* \"#utility.yul\":545:684   */\n    tag_29:\n        /* \"#utility.yul\":591:596   */\n      0x00\n        /* \"#utility.yul\":629:635   */\n      dup2\n        /* \"#utility.yul\":616:636   */\n      calldataload\n        /* \"#utility.yul\":607:636   */\n      swap1\n      pop\n        /* \"#utility.yul\":645:678   */\n      tag_47\n        /* \"#utility.yul\":672:677   */\n      dup2\n        /* \"#utility.yul\":645:678   */\n      tag_28\n      jump\t// in\n    tag_47:\n        /* \"#utility.yul\":545:684   */\n      swap3\n      swap2\n      pop\n      pop\n      jump\t// out\n        /* \"#utility.yul\":690:1019   */\n    tag_9:\n        /* \"#utility.yul\":749:755   */\n      0x00\n        /* \"#utility.yul\":798:800   */\n      0x20\n        /* \"#utility.yul\":786:795   */\n      dup3\n        /* \"#utility.yul\":777:784   */\n      dup5\n        /* \"#utility.yul\":773:796   */\n      sub\n        /* \"#utility.yul\":769:801   */\n      slt\n        /* \"#utility.yul\":766:885   */\n      iszero\n      tag_49\n      jumpi\n        /* \"#utility.yul\":804:883   */\n      tag_50\n      tag_25\n      jump\t// in\n    tag_50:\n        /* \"#utility.yul\":766:885   */\n    tag_49:\n        /* \"#utility.yul\":924:925   */\n      0x00\n        /* \"#utility.yul\":949:1002   */\n      tag_51\n        /* \"#utility.yul\":994:1001   */\n      dup5\n        /* \"#utility.yul\":985:991   */\n      dup3\n        /* \"#utility.yul\":974:983   */\n      dup6\n        /* \"#utility.yul\":970:992   */\n      add\n        /* \"#utility.yul\":949:1002   */\n      tag_29\n      jump\t// in\n    tag_51:\n        /* \"#utility.yul\":939:1002   */\n      swap2\n      pop\n        /* \"#utility.yul\":895:1012   */\n      pop\n        /* \"#utility.yul\":690:1019   */\n      swap3\n      swap2\n      pop\n      pop\n      jump\t// out\n        /* \"#utility.yul\":1025:1151   */\n    tag_30:\n        /* \"#utility.yul\":1062:1069   */\n      0x00\n        /* \"#utility.yul\":1102:1144   */\n      0xffffffffffffffffffffffffffffffffffffffff\n        /* \"#utility.yul\":1095:1100   */\n      dup3\n        /* \"#utility.yul\":1091:1145   */\n      and\n        /* \"#utility.yul\":1080:1145   */\n      swap1\n      pop\n        /* \"#utility.yul\":1025:1151   */\n      swap2\n      swap1\n      pop\n      jump\t// out\n        /* \"#utility.yul\":1157:1261   */\n    tag_31:\n        /* \"#utility.yul\":1202:1209   */\n      0x00\n        /* \"#utility.yul\":1231:1255   */\n      tag_54\n        /* \"#utility.yul\":1249:1254   */\n      dup3\n        /* \"#utility.yul\":1231:1255   */\n      tag_30\n      jump\t// in\n    tag_54:\n        /* \"#utility.yul\":1220:1255   */\n      swap1\n      pop\n        /* \"#utility.yul\":1157:1261   */\n      swap2\n      swap1\n      pop\n      jump\t// out\n        /* \"#utility.yul\":1267:1409   */\n    tag_32:\n        /* \"#utility.yul\":1370:1402   */\n      tag_56\n        /* \"#utility.yul\":1396:1401   */\n      dup2\n        /* \"#utility.yul\":1370:1402   */\n      tag_31\n      jump\t// in\n    tag_56:\n        /* \"#utility.yul\":1365:1368   */\n      dup3\n        /* \"#utility.yul\":1358:1403   */\n      mstore\n        /* \"#utility.yul\":1267:1409   */\n      pop\n      pop\n      jump\t// out\n        /* \"#utility.yul\":1415:1533   */\n    tag_33:\n        /* \"#utility.yul\":1502:1526   */\n      tag_58\n        /* \"#utility.yul\":1520:1525   */\n      dup2\n        /* \"#utility.yul\":1502:1526   */\n      tag_27\n      jump\t// in\n    tag_58:\n        /* \"#utility.yul\":1497:1500   */\n      dup3\n        /* \"#utility.yul\":1490:1527   */\n      mstore\n        /* \"#utility.yul\":1415:1533   */\n      pop\n      pop\n      jump\t// out\n        /* \"#utility.yul\":1539:1629   */\n    tag_34:\n        /* \"#utility.yul\":1573:1580   */\n      0x00\n        /* \"#utility.yul\":1616:1621   */\n      dup2\n        /* \"#utility.yul\":1609:1622   */\n      iszero\n        /* \"#utility.yul\":1602:1623   */\n      iszero\n        /* \"#utility.yul\":1591:1623   */\n      swap1\n      pop\n        /* \"#utility.yul\":1539:1629   */\n      swap2\n      swap1\n      pop\n      jump\t// out\n        /* \"#utility.yul\":1635:1744   */\n    tag_35:\n        /* \"#utility.yul\":1716:1737   */\n      tag_61\n        /* \"#utility.yul\":1731:1736   */\n      dup2\n        /* \"#utility.yul\":1716:1737   */\n      tag_34\n      jump\t// in\n    tag_61:\n        /* \"#utility.yul\":1711:1714   */\n      dup3\n        /* \"#utility.yul\":1704:1738   */\n      mstore\n        /* \"#utility.yul\":1635:1744   */\n      pop\n      pop\n      jump\t// out\n        /* \"#utility.yul\":1750:2454   */\n    tag_12:\n        /* \"#utility.yul\":1975:1979   */\n      0x00\n        /* \"#utility.yul\":2013:2016   */\n      0xa0\n        /* \"#utility.yul\":2002:2011   */\n      dup3\n        /* \"#utility.yul\":1998:2017   */\n      add\n        /* \"#utility.yul\":1990:2017   */\n      swap1\n      pop\n        /* \"#utility.yul\":2027:2114   */\n      tag_63\n        /* \"#utility.yul\":2111:2112   */\n      0x00\n        /* \"#utility.yul\":2100:2109   */\n      dup4\n        /* \"#utility.yul\":2096:2113   */\n      add\n        /* \"#utility.yul\":2087:2093   */\n      dup9\n        /* \"#utility.yul\":2027:2114   */\n      tag_32\n      jump\t// in\n    tag_63:\n        /* \"#utility.yul\":2124:2212   */\n      tag_64\n        /* \"#utility.yul\":2208:2210   */\n      0x20\n        /* \"#utility.yul\":2197:2206   */\n      dup4\n        /* \"#utility.yul\":2193:2211   */\n      add\n        /* \"#utility.yul\":2184:2190   */\n      dup8\n        /* \"#utility.yul\":2124:2212   */\n      tag_32\n      jump\t// in\n    tag_64:\n        /* \"#utility.yul\":2222:2294   */\n      tag_65\n        /* \"#utility.yul\":2290:2292   */\n      0x40\n        /* \"#utility.yul\":2279:2288   */\n      dup4\n        /* \"#utility.yul\":2275:2293   */\n      add\n        /* \"#utility.yul\":2266:2272   */\n      dup7\n        /* \"#utility.yul\":2222:2294   */\n      tag_33\n      jump\t// in\n    tag_65:\n        /* \"#utility.yul\":2304:2370   */\n      tag_66\n        /* \"#utility.yul\":2366:2368   */\n      0x60\n        /* \"#utility.yul\":2355:2364   */\n      dup4\n        /* \"#utility.yul\":2351:2369   */\n      add\n        /* \"#utility.yul\":2342:2348   */\n      dup6\n        /* \"#utility.yul\":2304:2370   */\n      tag_35\n      jump\t// in\n    tag_66:\n        /* \"#utility.yul\":2380:2447   */\n      tag_67\n        /* \"#utility.yul\":2442:2445   */\n      0x80\n        /* \"#utility.yul\":2431:2440   */\n      dup4\n        /* \"#utility.yul\":2427:2446   */\n      add\n        /* \"#utility.yul\":2418:2424   */\n      dup5\n        /* \"#utility.yul\":2380:2447   */\n      tag_35\n      jump\t// in\n    tag_67:\n        /* \"#utility.yul\":1750:2454   */\n      swap7\n      swap6\n      pop\n      pop\n      pop\n      pop\n      pop\n      pop\n      jump\t// out\n        /* \"#utility.yul\":2460:2682   */\n    tag_16:\n        /* \"#utility.yul\":2553:2557   */\n      0x00\n        /* \"#utility.yul\":2591:2593   */\n      0x20\n        /* \"#utility.yul\":2580:2589   */\n      dup3\n        /* \"#utility.yul\":2576:2594   */\n      add\n        /* \"#utility.yul\":2568:2594   */\n      swap1\n      pop\n        /* \"#utility.yul\":2604:2675   */\n      tag_69\n        /* \"#utility.yul\":2672:2673   */\n      0x00\n        /* \"#utility.yul\":2661:2670   */\n      dup4\n        /* \"#utility.yul\":2657:2674   */\n      add\n        /* \"#utility.yul\":2648:2654   */\n      dup5\n        /* \"#utility.yul\":2604:2675   */\n      tag_33\n      jump\t// in\n    tag_69:\n        /* \"#utility.yul\":2460:2682   */\n      swap3\n      swap2\n      pop\n      pop\n      jump\t// out\n        /* \"#utility.yul\":2688:2784   */\n    tag_36:\n        /* \"#utility.yul\":2725:2732   */\n      0x00\n        /* \"#utility.yul\":2754:2778   */\n      tag_71\n        /* \"#utility.yul\":2772:2777   */\n      dup3\n        /* \"#utility.yul\":2754:2778   */\n      tag_30\n      jump\t// in\n    tag_71:\n        /* \"#utility.yul\":2743:2778   */\n      swap1\n      pop\n        /* \"#utility.yul\":2688:2784   */\n      swap2\n      swap1\n      pop\n      jump\t// out\n        /* \"#utility.yul\":2790:2908   */\n    tag_37:\n        /* \"#utility.yul\":2877:2901   */\n      tag_73\n        /* \"#utility.yul\":2895:2900   */\n      dup2\n        /* \"#utility.yul\":2877:2901   */\n      tag_36\n      jump\t// in\n    tag_73:\n        /* \"#utility.yul\":2872:2875   */\n      dup3\n        /* \"#utility.yul\":2865:2902   */\n      mstore\n        /* \"#utility.yul\":2790:2908   */\n      pop\n      pop\n      jump\t// out\n        /* \"#utility.yul\":2914:3136   */\n    tag_20:\n        /* \"#utility.yul\":3007:3011   */\n      0x00\n        /* \"#utility.yul\":3045:3047   */\n      0x20\n        /* \"#utility.yul\":3034:3043   */\n      dup3\n        /* \"#utility.yul\":3030:3048   */\n      add\n        /* \"#utility.yul\":3022:3048   */\n      swap1\n      pop\n        /* \"#utility.yul\":3058:3129   */\n      tag_75\n        /* \"#utility.yul\":3126:3127   */\n      0x00\n        /* \"#utility.yul\":3115:3124   */\n      dup4\n        /* \"#utility.yul\":3111:3128   */\n      add\n        /* \"#utility.yul\":3102:3108   */\n      dup5\n        /* \"#utility.yul\":3058:3129   */\n      tag_37\n      jump\t// in\n    tag_75:\n        /* \"#utility.yul\":2914:3136   */\n      swap3\n      swap2\n      pop\n      pop\n      jump\t// out\n\n    auxdata: 0xa264697066735822122011795123eba624c51f0a0d330bf7eeb05e28a7d5688bac358d83b3a4ca910ad264736f6c634300081a0033\n}\n",
				"bytecode": {
					"linkReferences": {},
					"object": "6080604052348015600e575f80fd5b506103378061001c5f395ff3fe608060405234801561000f575f80fd5b506004361061004a575f3560e01c80634dbbaa2e1461004e57806362a5dbbc146100825780638da5cb5b146100a0578063b47c1883146100be575b5f80fd5b610068600480360381019061006391906101cb565b6100dc565b60405161007995949392919061025e565b60405180910390f35b61008a610165565b60405161009791906102af565b60405180910390f35b6100a861016b565b6040516100b591906102e8565b60405180910390f35b6100c661018e565b6040516100d391906102af565b60405180910390f35b6002602052805f5260405f205f91509050805f015f9054906101000a900473ffffffffffffffffffffffffffffffffffffffff1690806001015f9054906101000a900473ffffffffffffffffffffffffffffffffffffffff1690806002015490806003015f9054906101000a900460ff16908060030160019054906101000a900460ff16905085565b60015481565b5f8054906101000a900473ffffffffffffffffffffffffffffffffffffffff1681565b60035481565b5f80fd5b5f819050919050565b6101aa81610198565b81146101b4575f80fd5b50565b5f813590506101c5816101a1565b92915050565b5f602082840312156101e0576101df610194565b5b5f6101ed848285016101b7565b91505092915050565b5f73ffffffffffffffffffffffffffffffffffffffff82169050919050565b5f61021f826101f6565b9050919050565b61022f81610215565b82525050565b61023e81610198565b82525050565b5f8115159050919050565b61025881610244565b82525050565b5f60a0820190506102715f830188610226565b61027e6020830187610226565b61028b6040830186610235565b610298606083018561024f565b6102a5608083018461024f565b9695505050505050565b5f6020820190506102c25f830184610235565b92915050565b5f6102d2826101f6565b9050919050565b6102e2816102c8565b82525050565b5f6020820190506102fb5f8301846102d9565b9291505056fea264697066735822122011795123eba624c51f0a0d330bf7eeb05e28a7d5688bac358d83b3a4ca910ad264736f6c634300081a0033",
					"opcodes": "PUSH1 0x80 PUSH1 0x40 MSTORE CALLVALUE DUP1 ISZERO PUSH1 0xE JUMPI PUSH0 DUP1 REVERT JUMPDEST POP PUSH2 0x337 DUP1 PUSH2 0x1C PUSH0 CODECOPY PUSH0 RETURN INVALID PUSH1 0x80 PUSH1 0x40 MSTORE CALLVALUE DUP1 ISZERO PUSH2 0xF JUMPI PUSH0 DUP1 REVERT JUMPDEST POP PUSH1 0x4 CALLDATASIZE LT PUSH2 0x4A JUMPI PUSH0 CALLDATALOAD PUSH1 0xE0 SHR DUP1 PUSH4 0x4DBBAA2E EQ PUSH2 0x4E JUMPI DUP1 PUSH4 0x62A5DBBC EQ PUSH2 0x82 JUMPI DUP1 PUSH4 0x8DA5CB5B EQ PUSH2 0xA0 JUMPI DUP1 PUSH4 0xB47C1883 EQ PUSH2 0xBE JUMPI JUMPDEST PUSH0 DUP1 REVERT JUMPDEST PUSH2 0x68 PUSH1 0x4 DUP1 CALLDATASIZE SUB DUP2 ADD SWAP1 PUSH2 0x63 SWAP2 SWAP1 PUSH2 0x1CB JUMP JUMPDEST PUSH2 0xDC JUMP JUMPDEST PUSH1 0x40 MLOAD PUSH2 0x79 SWAP6 SWAP5 SWAP4 SWAP3 SWAP2 SWAP1 PUSH2 0x25E JUMP JUMPDEST PUSH1 0x40 MLOAD DUP1 SWAP2 SUB SWAP1 RETURN JUMPDEST PUSH2 0x8A PUSH2 0x165 JUMP JUMPDEST PUSH1 0x40 MLOAD PUSH2 0x97 SWAP2 SWAP1 PUSH2 0x2AF JUMP JUMPDEST PUSH1 0x40 MLOAD DUP1 SWAP2 SUB SWAP1 RETURN JUMPDEST PUSH2 0xA8 PUSH2 0x16B JUMP JUMPDEST PUSH1 0x40 MLOAD PUSH2 0xB5 SWAP2 SWAP1 PUSH2 0x2E8 JUMP JUMPDEST PUSH1 0x40 MLOAD DUP1 SWAP2 SUB SWAP1 RETURN JUMPDEST PUSH2 0xC6 PUSH2 0x18E JUMP JUMPDEST PUSH1 0x40 MLOAD PUSH2 0xD3 SWAP2 SWAP1 PUSH2 0x2AF JUMP JUMPDEST PUSH1 0x40 MLOAD DUP1 SWAP2 SUB SWAP1 RETURN JUMPDEST PUSH1 0x2 PUSH1 0x20 MSTORE DUP1 PUSH0 MSTORE PUSH1 0x40 PUSH0 KECCAK256 PUSH0 SWAP2 POP SWAP1 POP DUP1 PUSH0 ADD PUSH0 SWAP1 SLOAD SWAP1 PUSH2 0x100 EXP SWAP1 DIV PUSH20 0xFFFFFFFFFFFFFFFFFFFFFFFFFFFFFFFFFFFFFFFF AND SWAP1 DUP1 PUSH1 0x1 ADD PUSH0 SWAP1 SLOAD SWAP1 PUSH2 0x100 EXP SWAP1 DIV PUSH20 0xFFFFFFFFFFFFFFFFFFFFFFFFFFFFFFFFFFFFFFFF AND SWAP1 DUP1 PUSH1 0x2 ADD SLOAD SWAP1 DUP1 PUSH1 0x3 ADD PUSH0 SWAP1 SLOAD SWAP1 PUSH2 0x100 EXP SWAP1 DIV PUSH1 0xFF AND SWAP1 DUP1 PUSH1 0x3 ADD PUSH1 0x1 SWAP1 SLOAD SWAP1 PUSH2 0x100 EXP SWAP1 DIV PUSH1 0xFF AND SWAP1 POP DUP6 JUMP JUMPDEST PUSH1 0x1 SLOAD DUP2 JUMP JUMPDEST PUSH0 DUP1 SLOAD SWAP1 PUSH2 0x100 EXP SWAP1 DIV PUSH20 0xFFFFFFFFFFFFFFFFFFFFFFFFFFFFFFFFFFFFFFFF AND DUP2 JUMP JUMPDEST PUSH1 0x3 SLOAD DUP2 JUMP JUMPDEST PUSH0 DUP1 REVERT JUMPDEST PUSH0 DUP2 SWAP1 POP SWAP2 SWAP1 POP JUMP JUMPDEST PUSH2 0x1AA DUP2 PUSH2 0x198 JUMP JUMPDEST DUP2 EQ PUSH2 0x1B4 JUMPI PUSH0 DUP1 REVERT JUMPDEST POP JUMP JUMPDEST PUSH0 DUP2 CALLDATALOAD SWAP1 POP PUSH2 0x1C5 DUP2 PUSH2 0x1A1 JUMP JUMPDEST SWAP3 SWAP2 POP POP JUMP JUMPDEST PUSH0 PUSH1 0x20 DUP3 DUP5 SUB SLT ISZERO PUSH2 0x1E0 JUMPI PUSH2 0x1DF PUSH2 0x194 JUMP JUMPDEST JUMPDEST PUSH0 PUSH2 0x1ED DUP5 DUP3 DUP6 ADD PUSH2 0x1B7 JUMP JUMPDEST SWAP2 POP POP SWAP3 SWAP2 POP POP JUMP JUMPDEST PUSH0 PUSH20 0xFFFFFFFFFFFFFFFFFFFFFFFFFFFFFFFFFFFFFFFF DUP3 AND SWAP1 POP SWAP2 SWAP1 POP JUMP JUMPDEST PUSH0 PUSH2 0x21F DUP3 PUSH2 0x1F6 JUMP JUMPDEST SWAP1 POP SWAP2 SWAP1 POP JUMP JUMPDEST PUSH2 0x22F DUP2 PUSH2 0x215 JUMP JUMPDEST DUP3 MSTORE POP POP JUMP JUMPDEST PUSH2 0x23E DUP2 PUSH2 0x198 JUMP JUMPDEST DUP3 MSTORE POP POP JUMP JUMPDEST PUSH0 DUP2 ISZERO ISZERO SWAP1 POP SWAP2 SWAP1 POP JUMP JUMPDEST PUSH2 0x258 DUP2 PUSH2 0x244 JUMP JUMPDEST DUP3 MSTORE POP POP JUMP JUMPDEST PUSH0 PUSH1 0xA0 DUP3 ADD SWAP1 POP PUSH2 0x271 PUSH0 DUP4 ADD DUP9 PUSH2 0x226 JUMP JUMPDEST PUSH2 0x27E PUSH1 0x20 DUP4 ADD DUP8 PUSH2 0x226 JUMP JUMPDEST PUSH2 0x28B PUSH1 0x40 DUP4 ADD DUP7 PUSH2 0x235 JUMP JUMPDEST PUSH2 0x298 PUSH1 0x60 DUP4 ADD DUP6 PUSH2 0x24F JUMP JUMPDEST PUSH2 0x2A5 PUSH1 0x80 DUP4 ADD DUP5 PUSH2 0x24F JUMP JUMPDEST SWAP7 SWAP6 POP POP POP POP POP POP JUMP JUMPDEST PUSH0 PUSH1 0x20 DUP3 ADD SWAP1 POP PUSH2 0x2C2 PUSH0 DUP4 ADD DUP5 PUSH2 0x235 JUMP JUMPDEST SWAP3 SWAP2 POP POP JUMP JUMPDEST PUSH0 PUSH2 0x2D2 DUP3 PUSH2 0x1F6 JUMP JUMPDEST SWAP1 POP SWAP2 SWAP1 POP JUMP JUMPDEST PUSH2 0x2E2 DUP2 PUSH2 0x2C8 JUMP JUMPDEST DUP3 MSTORE POP POP JUMP JUMPDEST PUSH0 PUSH1 0x20 DUP3 ADD SWAP1 POP PUSH2 0x2FB PUSH0 DUP4 ADD DUP5 PUSH2 0x2D9 JUMP JUMPDEST SWAP3 SWAP2 POP POP JUMP INVALID LOG2 PUSH5 0x6970667358 0x22 SLT KECCAK256 GT PUSH26 0x5123EBA624C51F0A0D330BF7EEB05E28A7D5688BAC358D83B3A4 0xCA SWAP2 EXP 0xD2 PUSH5 0x736F6C6343 STOP ADDMOD BYTE STOP CALLER "
				},
				"gasEstimates": {
					"creation": {
						"codeDepositCost": "164600",
						"executionCost": "206",
						"totalCost": "164806"
					},
					"external": {
						"owner()": "2527",
						"platformBalance()": "2425",
						"rideCount()": "2469",
						"ridesByID(uint256)": "infinite"
					}
				},
				"methodIdentifiers": {
					"owner()": "8da5cb5b",
					"platformBalance()": "62a5dbbc",
					"rideCount()": "b47c1883",
					"ridesByID(uint256)": "4dbbaa2e"
				}
			},
			"storageLayout": {
				"storage": [
					{
						"astId": 3,
						"contract": "taxiride.sol:TaxiRide",
						"label": "owner",
						"offset": 0,
						"slot": "0",
						"type": "t_address"
					},
					{
						"astId": 5,
						"contract": "taxiride.sol:TaxiRide",
						"label": "platformBalance",
						"offset": 0,
						"slot": "1",
						"type": "t_uint256"
					},
					{
						"astId": 21,
						"contract": "taxiride.sol:TaxiRide",
						"label": "ridesByID",
						"offset": 0,
						"slot": "2",
						"type": "t_mapping(t_uint256,t_struct(Ride)16_storage)"
					},
					{
						"astId": 23,
						"contract": "taxiride.sol:TaxiRide",
						"label": "rideCount",
						"offset": 0,
						"slot": "3",
						"type": "t_uint256"
					}
				],
				"types": {
					"t_address": {
						"encoding": "inplace",
						"label": "address",
						"numberOfBytes": "20"
					},
					"t_address_payable": {
						"encoding": "inplace",
						"label": "address payable",
						"numberOfBytes": "20"
					},
					"t_bool": {
						"encoding": "inplace",
						"label": "bool",
						"numberOfBytes": "1"
					},
					"t_mapping(t_uint256,t_struct(Ride)16_storage)": {
						"encoding": "mapping",
						"key": "t_uint256",
						"label": "mapping(uint256 => struct TaxiRide.Ride)",
						"numberOfBytes": "32",
						"value": "t_struct(Ride)16_storage"
					},
					"t_struct(Ride)16_storage": {
						"encoding": "inplace",
						"label": "struct TaxiRide.Ride",
						"members": [
							{
								"astId": 7,
								"contract": "taxiride.sol:TaxiRide",
								"label": "rider",
								"offset": 0,
								"slot": "0",
								"type": "t_address_payable"
							},
							{
								"astId": 9,
								"contract": "taxiride.sol:TaxiRide",
								"label": "driver",
								"offset": 0,
								"slot": "1",
								"type": "t_address_payable"
							},
							{
								"astId": 11,
								"contract": "taxiride.sol:TaxiRide",
								"label": "fare",
								"offset": 0,
								"slot": "2",
								"type": "t_uint256"
							},
							{
								"astId": 13,
								"contract": "taxiride.sol:TaxiRide",
								"label": "isAccepted",
								"offset": 0,
								"slot": "3",
								"type": "t_bool"
							},
							{
								"astId": 15,
								"contract": "taxiride.sol:TaxiRide",
								"label": "isCompleted",
								"offset": 1,
								"slot": "3",
								"type": "t_bool"
							}
						],
						"numberOfBytes": "128"
					},
					"t_uint256": {
						"encoding": "inplace",
						"label": "uint256",
						"numberOfBytes": "32"
					}
				}
			},
			"userdoc": {
				"kind": "user",
				"methods": {},
				"version": 1
			}
		}
	}
}